:100000000C9434240C94B5370C948A370C945F37D5
:100010000C9434370C9409370C94DE360C94B336B8
:100020000C9488360C9465240C9465240C946524F7
:100030000C9465240C9465240C9465240C9465241C
:100040000C9465240C9465240C9465240C9465240C
:100050000C9465240C9465240C9465240C943E3611
:100060000C9465240C94002E0C94D62D0C946524CD
:100070000C9465240C9465240C9465240C946524DC
:100080000C9465240C9465240C9465240C946524CC
:100090000C9465240C9465240C9465240C944038CD
:1000A0000C9465240C9465240C9465240C946524AC
:1000B0000C9465240C9465240C9465240C9465249C
:1000C0000C9465240C9465240C9465240C94AC2D3C
:1000D0000C94822D0C9465240C94582D0C942E2D88
:1000E0000C946524084AD73B3BCE016E84BCBFFD0F
:1000F000C12F3D6C74319ABD56833DDA3D00C77FF8
:1001000011BED9E4BB4C3E916BAAAABE0000008090
:100110003F05A84CCDB2D44EB93836A9020C50B91F
:10012000918688083CA6AAAA2ABE000000803F004B
:100130000C9455690C9412530C945C770C94A9623E
:100140000C945D550C94F7520C943E260C942F435E
:100150000C943D530C94386B0C943C6B0C945128CC
:100160000C94D7520C941F5E0C948B260C94DE25B5
:100170000C949D620C944B2A0C94B9760C949226A4
:100180000C9459610C946E610C9434530C94A86ACD
:100190000C9415260C94F1290C94DA740C949A772B
:1001A0000C94C6690C94E7590C941F260C94FC67B8
:1001B0000C942E530C94F9660C944D650C946A675C
:1001C0000C9455650C94F4680C9469260C944E5A62
:1001D0000C9486580C943A530C941D610C94405323
:1001E0000C94B65B0C9423260C9465610C945C43D0
:1001F0000C9461550C94AD240C94B3720C941C6B4C
:100200000C94DE740C940C630C9407260C946277A7
:100210000C9494580C9484410C9456610C94EE26E2
:100220000C9497250C9419410C94F7660C940B26AA
:100230000C9401780C94D3550C9400530C940E2715
:100240000C9482550C94EC250C9498770C943632CF
:100250000C9415530C942A250C9438450C94F5668F
:100260000C9452760C94DC770C942A6B0C941075D9
:100270000C94BC240C94DA770C949C770C948555E0
:100280000C9461650C947D580C9453610C946077C8
:100290000C947F550C94DE240C945C610C942A77AA
:1002A0000C9419260C9403260C9477250C947F68E3
:1002B0000C94326A0C9487770C94E4250C94513298
:1002C0000C9431530C945B650C948C580C948D55A4
:1002D0000C94EC740C94C9770C94A0770C94435351
:1002E0000C945E650C94E2760C94D0240C94F66E1B
:1002F0000C94BB400C94535B0C9472640C943B774D
:100300000C942F6D0C94BD550C9418530C94695D8E
:100310000C9437530C9467260C94DA550C94F366BE
:100320000C94CF680C9435590C945E770C941E276E
:100330000C94065B0C94B3550C947C550C94BC79CE
:100340000C944A2A0C94E1550C949E770C940E530D
:100350000C94DE690C947A690C942B530C94766C93
:100360000C94A2770C9467240C9458650C94F02597
:100370000C94FB520C9449450C94D7670C9407617C
:100380000C943A320C941B750C94B1400C94F75CAD
:100390000C94B9320C9407530C94FD520C945A6887
:1003A0000C941E260C9481320C94F9520C946626FF
:1003B0000C9491580C9478260C9477550C944853CF
:1003C0000C94D3660C9421610C9403490C947961CC
:1003D0000C94CD6A0C94E6740C9498590C941126E4
:1003E0000C94F0290C940D750C9465620C94D05506
:1003F0000C9475610C94E8290C94F9250C94E27422
:100400000C9484670C94576A0C941D5C0C94BF2662
:100410000C94A4770C94A15A0C94B3780C94BA550C
:100420000C94CCB50C94E6580C94E8250C94254912
:100430000C94F3250C9483580C94CC660C94316B7B
:100440000C9468260C94FD250C9480580C948376AB
:100450000C9489580C94945C00407A10F35A00A0D4
:10046000724E18090010A5D4E80000E8764817007D
:1004700000E40B54020000CA9A3B000000E1F505BD
:10048000000080969800000040420F000000A08607
:1004900001000000102700000000E8030000000039
:1004A0006400000000000A000000000001000000DD
:1004B00000002C76D888DC674F0823DFC1DFAE59F7
:1004C000E1B1B796E5E3E453C63AE651997696E88A
:1004D000E6C28426EB898C9B62ED407C6FFCEFBC0E
:1004E0009C9F40F2BAA56FA5F490055A2AF75C9339
:1004F0006B6CF9676DC11BFCE0E40D47FEF520E66F
:10050000B500D0ED902E0300943577050080841E51
:10051000080000204E0A000000C80C333333330FAC
:10052000986E12831141EF8D2114893BE65516CF49
:10053000FEE6DB18D1844B381BF77C1D901DA4BB55
:10054000E424203284725E228100C9F124ECA1E50A
:100550003D2743616E204572726F72205269676851
:10056000743A200043616E204572726F72205269A6
:100570006768743A200043616E204572726F722082
:100580004C6566743A200043616E204572726F724A
:10059000204C6566743A20002D2D2D2D2D2D2D2DEE
:1005A0002D2D2D2D2D2D2D2D2D2D2D2D2D2D2D2D7B
:1005B0002D2D2D2D2D2D2D2D2D2D2D2D002D2D2D98
:1005C0002D2D2D2D2D2D2D2D2D2D2D2D2D2D2D2D5B
:1005D0002D2D2D2D2D2D2D2D2D2D2D2D2D2D2D2D4B
:1005E0002D00537472617465677920284175746FAA
:1005F0006E6F6D6F7573293A20496E697469616C0D
:10060000697A65642E005374726174656779202875
:100610004175746F6E6F6D6F7573293A20496E69FD
:100620007469616C697A65642E00537472617465D3
:10063000677920284175746F6E6F6D6F7573293AF5
:10064000205374617274696E672E00537472617402
:1006500065677920284175746F6E6F6D6F757329AA
:100660003A205374617274696E672E002D2D2D2D02
:100670002D2D2D2D2D2D2D2D2D2D2D2D2D2D2D2DAA
:100680002D2D2D2D2D2D2D2D2D2D2D2D2D2D2D2D9A
:10069000002D2D2D2D2D2D2D2D2D2D2D2D2D2D2DB7
:1006A0002D2D2D2D2D2D2D2D2D2D2D2D2D2D2D2D7A
:1006B0002D2D2D2D2D002D2D2D2D2D2D2D2D2D2D97
:1006C0002D2D2D2D2D2D2D2D2D2D2D2D2D2D2D2D5A
:1006D0002D2D2D2D2D2D2D2D2D2D002D2D2D2D2D77
:1006E0002D2D2D2D2D2D2D2D2D2D2D2D2D2D2D2D3A
:1006F0002D2D2D2D2D2D2D2D2D2D2D2D2D2D2D0057
:100700005374617274696E67204175746F6E6F6D9A
:100710006F75732044726976696E670053746172F5
:1007200074696E67204175746F6E6F6D6F7573209D
:1007300044726976696E67002D2D2D2D2D2D2D2D7E
:100740002D2D2D2D2D2D2D2D2D2D2D2D2D2D2D2DD9
:100750002D2D2D2D2D2D2D2D2D2D2D2D002D2D2DF6
:100760002D2D2D2D2D2D2D2D2D2D2D2D2D2D2D2DB9
:100770002D2D2D2D2D2D2D2D2D2D2D2D2D2D2D2DA9
:100780002D002D2D2D2D2D2D2D2D2D2D2D2D2D2DC6
:100790002D2D2D2D2D2D2D2D2D2D2D2D2D2D2D2D89
:1007A0002D2D2D2D2D2D002D2D2D2D2D2D2D2D2DA6
:1007B0002D2D2D2D2D2D2D2D2D2D2D2D2D2D2D2D69
:1007C0002D2D2D2D2D2D2D2D2D2D2D0042617474AF
:1007D000657279204C6576656C203C203230252C82
:1007E000207374617274696E6720636861726765F3
:1007F000206379636C650042617474657279204C82
:100800006576656C203C203230252C207374617233
:1008100074696E6720636861726765206379636CD1
:1008200065002D2D2D2D2D2D2D2D2D2D2D2D2D2DED
:100830002D2D2D2D2D2D2D2D2D2D2D2D2D2D2D2DE8
:100840002D2D2D2D2D2D002D2D2D2D2D2D2D2D2D05
:100850002D2D2D2D2D2D2D2D2D2D2D2D2D2D2D2DC8
:100860002D2D2D2D2D2D2D2D2D2D2D002D2D2D2DE5
:100870002D2D2D2D2D2D2D2D2D2D2D2D2D2D2D2DA8
:100880002D2D2D2D2D2D2D2D2D2D2D2D2D2D2D2D98
:10089000002D2D2D2D2D2D2D2D2D2D2D2D2D2D2DB5
:1008A0002D2D2D2D2D2D2D2D2D2D2D2D2D2D2D2D78
:1008B0002D2D2D2D2D0042617474657279205265A5
:1008C0006368617267656420746F203E203830254C
:1008D0000042617474657279205265636861726761
:1008E000656420746F203E20383025002D2D2D2D7D
:1008F0002D2D2D2D2D2D2D2D2D2D2D2D2D2D2D2D28
:100900002D2D2D2D2D2D2D2D2D2D2D2D2D2D2D2D17
:10091000002D2D2D2D2D2D2D2D2D2D2D2D2D2D2D34
:100920002D2D2D2D2D2D2D2D2D2D2D2D2D2D2D2DF7
:100930002D2D2D2D2D002D2D2D2D2D2D2D2D2D2D14
:100940002D2D2D2D2D2D2D2D2D2D2D2D2D2D2D2DD7
:100950002D2D2D2D2D2D2D2D2D2D002D2D2D2D2DF4
:100960002D2D2D2D2D2D2D2D2D2D2D2D2D2D2D2DB7
:100970002D2D2D2D2D2D2D2D2D2D2D2D2D2D2D00D4
:10098000537472617465677920284175746F6E6F56
:100990006D6F7573293A2046696E69736865642EB8
:1009A00000537472617465677920284175746F6EA5
:1009B0006F6D6F7573293A2046696E697368656457
:1009C0002E00537472617465677920284175746FC5
:1009D0006E6F6D6F7573293A20456E64696E672E70
:1009E00000537472617465677920284175746F6E65
:1009F0006F6D6F7573293A20456E64696E672E00BE
:100A00002D2D2D2D2D2D2D2D2D2D2D2D2D2D2D2D16
:100A10002D2D2D2D2D2D2D2D2D2D2D2D2D2D2D2D06
:100A20002D2D2D2D002D2D2D2D2D2D2D2D2D2D2D23
:100A30002D2D2D2D2D2D2D2D2D2D2D2D2D2D2D2DE6
:100A40002D2D2D2D2D2D2D2D2D002D2D2D2D2D2D03
:100A50002D2D2D2D2D2D2D2D2D2D2D2D2D2D2D2DC6
:100A60002D2D2D2D2D2D2D2D2D2D2D2D2D2D002DE3
:100A70002D2D2D2D2D2D2D2D2D2D2D2D2D2D2D2DA6
:100A80002D2D2D2D2D2D2D2D2D2D2D2D2D2D2D2D96
:100A90002D2D2D0053747261746567792028456D82
:100AA000657267656E6379293A20496E6974696178
:100AB0006C697A6564005374726174656779202883
:100AC000456D657267656E6379293A20496E697470
:100AD00069616C697A6564005374726174656779E1
:100AE0002028456D657267656E6379293A205379D0
:100AF0007374656D732044697361626C656400533F
:100B0000747261746567792028456D657267656EDA
:100B10006379293A2053797374656D73204469733E
:100B200061626C6564005374726174656779202832
:100B3000456D657267656E6379293A2053746172F9
:100B400074696E6700537472617465677920284513
:100B50006D657267656E6379293A205374617274AA
:100B6000696E67002D2D2D2D2D2D2D2D2D2D2D2D2B
:100B70002D2D2D2D2D2D2D2D2D2D2D2D2D2D2D2DA5
:100B80002D2D2D2D2D2D2D2D002D2D2D2D2D2D2DC2
:100B90002D2D2D2D2D2D2D2D2D2D2D2D2D2D2D2D85
:100BA0002D2D2D2D2D2D2D2D2D2D2D2D2D00537435
:100BB0007261746567792028456D657267656E633B
:100BC00079293A2046696E697368656400537472C6
:100BD00061746567792028456D657267656E637914
:100BE000293A2046696E69736865640053747261BE
:100BF000746567792028456D657267656E6379292C
:100C00003A20456E64696E6700537472617465675B
:100C1000792028456D657267656E6379293A2045AC
:100C20006E64696E67002D2D2D2D2D2D2D2D2D2DF2
:100C30002D2D2D2D2D2D2D2D2D2D2D2D2D2D2D2DE4
:100C40002D2D2D2D2D2D2D2D2D2D002D2D2D2D2D01
:100C50002D2D2D2D2D2D2D2D2D2D2D2D2D2D2D2DC4
:100C60002D2D2D2D2D2D2D2D2D2D2D2D2D2D2D00E1
:100C70002D2D2D2D2D2D2D2D2D2D2D2D2D2D2D2DA4
:100C80002D2D2D2D2D2D2D2D2D2D2D2D2D2D2D2D94
:100C90002D2D2D2D002D2D2D2D2D2D2D2D2D2D2DB1
:100CA0002D2D2D2D2D2D2D2D2D2D2D2D2D2D2D2D74
:100CB0002D2D2D2D2D2D2D2D2D005374726174652C
:100CC0006779202849646C65293A20496E697469FE
:100CD000616C697A65640053747261746567792028
:100CE0002849646C65293A20496E697469616C69A8
:100CF0007A65640053747261746567792028496469
:100D00006C65293A205374617274696E670053747C
:100D1000726174656779202849646C65293A2053AB
:100D200074617274696E67002D2D2D2D2D2D2D2D62
:100D30002D2D2D2D2D2D2D2D2D2D2D2D2D2D2D2DE3
:100D40002D2D2D2D2D2D2D2D2D2D2D2D002D2D2D00
:100D50002D2D2D2D2D2D2D2D2D2D2D2D2D2D2D2DC3
:100D60002D2D2D2D2D2D2D2D2D2D2D2D2D2D2D2DB3
:100D70002D005374726174656779202849646C652D
:100D8000293A2046696E697368656400537472611C
:100D900074656779202849646C65293A2046696E34
:100DA000697368656400537472617465677920289B
:100DB00049646C65293A20456E64696E6700537416
:100DC000726174656779202849646C65293A204509
:100DD0006E64696E67002D2D2D2D2D2D2D2D2D2D41
:100DE0002D2D2D2D2D2D2D2D2D2D2D2D2D2D2D2D33
:100DF0002D2D2D2D2D2D2D2D2D2D002D2D2D2D2D50
:100E00002D2D2D2D2D2D2D2D2D2D2D2D2D2D2D2D12
:100E10002D2D2D2D2D2D2D2D2D2D2D2D2D2D2D002F
:100E20004D6F6465204379636C653A20004D6F64B3
:100E300065204379636C653A20002D2D2D2D2D2DD5
:100E40002D2D2D2D2D2D2D2D2D2D2D2D2D2D2D2DD2
:100E50002D2D2D2D2D2D2D2D2D2D2D2D2D2D002DEF
:100E60002D2D2D2D2D2D2D2D2D2D2D2D2D2D2D2DB2
:100E70002D2D2D2D2D2D2D2D2D2D2D2D2D2D2D2DA2
:100E80002D2D2D00537472617465677920284D6F84
:100E90006465204C696272617279293A20496E69F1
:100EA0007469616C697A6564005374726174656712
:100EB0007920284D6F6465204C69627261727929CE
:100EC0003A20496E697469616C697A65640053748B
:100ED00072617465677920284D6F6465204C696282
:100EE00072617279293A205374617274696E670075
:100EF000537472617465677920284D6F6465204C66
:100F0000696272617279293A205374617274696EF0
:100F100067002D2D2D2D2D2D2D2D2D2D2D2D2D2DF4
:100F20002D2D2D2D2D2D2D2D2D2D2D2D2D2D2D2DF1
:100F30002D2D2D2D2D2D002D2D2D2D2D2D2D2D2D0E
:100F40002D2D2D2D2D2D2D2D2D2D2D2D2D2D2D2DD1
:100F50002D2D2D2D2D2D2D2D2D2D2D005374726108
:100F60007465677920284D6F6465204C69627261F1
:100F70007279293A2046696E697368656400537412
:100F800072617465677920284D6F6465204C6962D1
:100F900072617279293A2046696E697368656400E6
:100FA000537472617465677920284D6F6465204CB5
:100FB000696272617279293A20456E64696E6700D0
:100FC000537472617465677920284D6F6465204C95
:100FD000696272617279293A20456E64696E6700B0
:100FE0002D2D2D2D2D2D2D2D2D2D2D2D2D2D2D2D31
:100FF0002D2D2D2D2D2D2D2D2D2D2D2D2D2D2D2D21
:101000002D2D2D2D002D2D2D2D2D2D2D2D2D2D2D3D
:101010002D2D2D2D2D2D2D2D2D2D2D2D2D2D2D2D00
:101020002D2D2D2D2D2D2D2D2D004D6F6465205333
:10103000656C65637465642E004D6F64652053654F
:101040006C65637465642E004D6F6465204379633D
:101050006C653A20004D6F6465204379636C653A96
:1010600020002D2D2D2D2D2D2D2D2D2D2D2D2D2DEA
:101070002D2D2D2D2D2D2D2D2D2D2D2D2D2D2D2DA0
:101080002D2D2D2D2D2D002D2D2D2D2D2D2D2D2DBD
:101090002D2D2D2D2D2D2D2D2D2D2D2D2D2D2D2D80
:1010A0002D2D2D2D2D2D2D2D2D2D2D0053747261B7
:1010B00074656779202852656D6F7465293A2049F7
:1010C0006E697469616C697A6564005374726174E5
:1010D000656779202852656D6F7465293A20496EDD
:1010E000697469616C697A656400537472617465CE
:1010F0006779202852656D6F7465293A20537461B1
:101100007274696E67005374726174656779202820
:1011100052656D6F7465293A205374617274696EFB
:1011200067002D2D2D2D2D2D2D2D2D2D2D2D2D2DE2
:101130002D2D2D2D2D2D2D2D2D2D2D2D2D2D2D2DDF
:101140002D2D2D2D2D2D002D2D2D2D2D2D2D2D2DFC
:101150002D2D2D2D2D2D2D2D2D2D2D2D2D2D2D2DBF
:101160002D2D2D2D2D2D2D2D2D2D2D002D2D2D2DDC
:101170002D2D2D2D2D2D2D2D2D2D2D2D2D2D2D2D9F
:101180002D2D2D2D2D2D2D2D2D2D2D002D2D2D2DBC
:101190002D2D2D2D2D2D2D2D2D2D2D2D2D2D2D2D7F
:1011A0002D2D2D2D2D2D2D2D2D2D2D002D2D2D2D9C
:1011B0002D2D2D2D2D2D2D2D2D2D2D2D2D2D2D2D5F
:1011C0002D2D2D2D2D2D2D2D2D2D2D2D2D2D2D2D4F
:1011D000002D2D2D2D2D2D2D2D2D2D2D2D2D2D2D6C
:1011E0002D2D2D2D2D2D2D2D2D2D2D2D2D2D2D2D2F
:1011F0002D2D2D2D2D004D6F64756C652053746160
:101200007274204572726F72004D6F64756C652048
:101210005374617274204572726F72002D2D2D2DE2
:101220002D2D2D2D2D2D2D2D2D2D2D2D2D2D2D2DEE
:101230002D2D2D2D2D2D2D2D2D2D2D2D2D2D2D2DDE
:10124000002D2D2D2D2D2D2D2D2D2D2D2D2D2D2DFB
:101250002D2D2D2D2D2D2D2D2D2D2D2D2D2D2D2DBE
:101260002D2D2D2D2D002D2D2D2D2D2D2D2D2D2DDB
:101270002D2D2D2D2D2D2D2D2D2D2D2D2D2D2D2D9E
:101280002D2D2D2D2D2D2D2D2D2D002D2D2D2D2DBB
:101290002D2D2D2D2D2D2D2D2D2D2D2D2D2D2D2D7E
:1012A0002D2D2D2D2D2D2D2D2D2D2D2D2D2D2D009B
:1012B0005374617274696E672052656D6F74652036
:1012C000436F6E74726F6C005374617274696E67F1
:1012D0002052656D6F746520436F6E74726F6C0081
:1012E0002D2D2D2D2D2D2D2D2D2D2D2D2D2D2D2D2E
:1012F0002D2D2D2D2D2D2D2D2D2D2D2D2D2D2D2D1E
:101300002D2D2D2D002D2D2D2D2D2D2D2D2D2D2D3A
:101310002D2D2D2D2D2D2D2D2D2D2D2D2D2D2D2DFD
:101320002D2D2D2D2D2D2D2D2D00537472617465B5
:101330006779202852656D6F7465293A2046696E79
:1013400069736865640053747261746567792028F5
:1013500052656D6F7465293A2046696E69736865D8
:1013600064005374726174656779202852656D6FEB
:101370007465293A20456E64696E67005374726122
:1013800074656779202852656D6F7465293A204528
:101390006E64696E67002D2D2D2D2D2D2D2D2D2D7B
:1013A0002D2D2D2D2D2D2D2D2D2D2D2D2D2D2D2D6D
:1013B0002D2D2D2D2D2D2D2D2D2D002D2D2D2D2D8A
:1013C0002D2D2D2D2D2D2D2D2D2D2D2D2D2D2D2D4D
:1013D0002D2D2D2D2D2D2D2D2D2D2D2D2D2D2D006A
:1013E0002D2D2D2D2D2D2D2D2D2D2D2D2D2D2D2D2D
:1013F0002D2D2D2D2D2D2D2D2D2D2D2D2D2D2D2D1D
:101400002D2D2D2D002D2D2D2D2D2D2D2D2D2D2D39
:101410002D2D2D2D2D2D2D2D2D2D2D2D2D2D2D2DFC
:101420002D2D2D2D2D2D2D2D2D00537472617465B4
:101430006779202853797374656D20546573742916
:101440003A20496E697469616C697A656400537405
:10145000726174656779202853797374656D2054BF
:10146000657374293A20496E697469616C697A659B
:1014700064005374726174656779202853797374BA
:10148000656D2054657374293A20537461727469D0
:101490006E6700537472617465677920285379739D
:1014A00074656D2054657374293A205374617274A5
:1014B000696E67002D2D2D2D2D2D2D2D2D2D2D2DD2
:1014C0002D2D2D2D2D2D2D2D2D2D2D2D2D2D2D2D4C
:1014D0002D2D2D2D2D2D2D2D002D2D2D2D2D2D2D69
:1014E0002D2D2D2D2D2D2D2D2D2D2D2D2D2D2D2D2C
:1014F0002D2D2D2D2D2D2D2D2D2D2D2D2D005379D7
:101500007374656D2054657374204572726F723AFE
:101510002053746F7070696E670053797374656DD2
:101520002054657374204572726F723A2053746F41
:101530007070696E67002D2D2D2D2D2D2D2D2D2DCB
:101540002D2D2D2D2D2D2D2D2D2D2D2D2D2D2D2DCB
:101550002D2D2D2D2D2D2D2D2D2D002D2D2D2D2DE8
:101560002D2D2D2D2D2D2D2D2D2D2D2D2D2D2D2DAB
:101570002D2D2D2D2D2D2D2D2D2D2D2D2D2D2D00C8
:101580002020526573756C74733A200020205265D8
:1015900073756C74733A200053797374656D2054BD
:1015A00065737420436F6D706C6574650053797357
:1015B00074656D205465737420436F6D706C657431
:1015C00065002D2D2D2D2D2D2D2D2D2D2D2D2D2D40
:1015D0002D2D2D2D2D2D2D2D2D2D2D2D2D2D2D2D3B
:1015E0002D2D2D2D2D2D002D2D2D2D2D2D2D2D2D58
:1015F0002D2D2D2D2D2D2D2D2D2D2D2D2D2D2D2D1B
:101600002D2D2D2D2D2D2D2D2D2D2D002D2D2D2D37
:101610002D2D2D2D2D2D2D2D2D2D2D2D2D2D2D2DFA
:101620002D2D2D2D2D2D2D2D2D2D2D2D2D2D2D2DEA
:10163000002D2D2D2D2D2D2D2D2D2D2D2D2D2D2D07
:101640002D2D2D2D2D2D2D2D2D2D2D2D2D2D2D2DCA
:101650002D2D2D2D2D004469736162656C696E67B7
:1016600020616C6C2073797374656D7300446973C9
:101670006162656C696E6720616C6C20737973744C
:10168000656D73002D2D2D2D2D2D2D2D2D2D2D2DF9
:101690002D2D2D2D2D2D2D2D2D2D2D2D2D2D2D2D7A
:1016A0002D2D2D2D2D2D2D2D002D2D2D2D2D2D2D97
:1016B0002D2D2D2D2D2D2D2D2D2D2D2D2D2D2D2D5A
:1016C0002D2D2D2D2D2D2D2D2D2D2D2D2D00546518
:1016D00073742028342F3429202D204D6F746F729D
:1016E000732028436F6D706C6574652900546573B1
:1016F000742028342F3429202D204D6F746F72737D
:101700002028436F6D706C657465290052756E6E8C
:10171000696E6720746573742028342F3429202D56
:10172000204D6F746F72730052756E6E696E672014
:10173000746573742028342F3429202D204D6F7444
:101740006F7273002D2D2D2D2D2D2D2D2D2D2D2D29
:101750002D2D2D2D2D2D2D2D2D2D2D2D2D2D2D2DB9
:101760002D2D2D2D2D2D2D2D002D2D2D2D2D2D2DD6
:101770002D2D2D2D2D2D2D2D2D2D2D2D2D2D2D2D99
:101780002D2D2D2D2D2D2D2D2D2D2D2D2D00546557
:1017900073742028332F3429202D205375627379D8
:1017A0007374656D732028436F6D706C6574652963
:1017B00000546573742028332F3429202D2053754D
:1017C0006273797374656D732028436F6D706C65F7
:1017D0007465290052756E6E696E67207465737446
:1017E0002028332F3429202D205375627379737488
:1017F000656D730052756E6E696E672074657374E3
:101800002028332F3429202D205375627379737467
:10181000656D73002D2D2D2D2D2D2D2D2D2D2D2D67
:101820002D2D2D2D2D2D2D2D2D2D2D2D2D2D2D2DE8
:101830002D2D2D2D2D2D2D2D002D2D2D2D2D2D2D05
:101840002D2D2D2D2D2D2D2D2D2D2D2D2D2D2D2DC8
:101850002D2D2D2D2D2D2D2D2D2D2D2D2D00546586
:1018600073742028322F3429202D20436F6D6D751D
:101870006E69636174696F6E2028436F6D706C656B
:1018800074652900546573742028322F3429202D63
:1018900020436F6D6D756E69636174696F6E20288A
:1018A000436F6D706C657465290052756E6E696E5C
:1018B0006720746573742028322F3429202D20432B
:1018C0006F6D6D756E69636174696F6E0052756ED0
:1018D0006E696E6720746573742028322F34292056
:1018E0002D20436F6D6D756E69636174696F6E0055
:1018F0002D2D2D2D2D2D2D2D2D2D2D2D2D2D2D2D18
:101900002D2D2D2D2D2D2D2D2D2D2D2D2D2D2D2D07
:101910002D2D2D2D002D2D2D2D2D2D2D2D2D2D2D24
:101920002D2D2D2D2D2D2D2D2D2D2D2D2D2D2D2DE7
:101930002D2D2D2D2D2D2D2D2D005465737420282A
:10194000312F3429202D20506F7765722053797301
:1019500074656D732028436F6D706C657465290024
:10196000546573742028312F3429202D20506F772F
:1019700065722053797374656D732028436F6D70A1
:101980006C657465290052756E6E696E67207465AA
:1019900073742028312F3429202D20506F776572E1
:1019A0002053797374656D730052756E6E696E673E
:1019B00020746573742028312F3429202D20506F16
:1019C0007765722053797374656D73002D2D2D2DFD
:1019D0002D2D2D2D2D2D2D2D2D2D2D2D2D2D2D2D37
:1019E0002D2D2D2D2D2D2D2D2D2D2D2D2D2D2D2D27
:1019F000002D2D2D2D2D2D2D2D2D2D2D2D2D2D2D44
:101A00002D2D2D2D2D2D2D2D2D2D2D2D2D2D2D2D06
:101A10002D2D2D2D2D0052756E6E696E6720467529
:101A20006C6C2053797374656D2054657374005227
:101A3000756E6E696E672046756C6C205379737491
:101A4000656D2054657374005374726174656779B1
:101A5000202853797374656D2054657374293A2076
:101A600046696E6973686564005374726174656772
:101A700079202853797374656D2054657374293AFD
:101A80002046696E69736865640053747261746599
:101A90006779202853797374656D205465737429B0
:101AA0003A20456E64696E670053747261746567AD
:101AB00079202853797374656D2054657374293ABD
:101AC00020456E64696E67002D2D2D2D2D2D2D2D39
:101AD0002D2D2D2D2D2D2D2D2D2D2D2D2D2D2D2D36
:101AE0002D2D2D2D2D2D2D2D2D2D2D2D002D2D2D53
:101AF0002D2D2D2D2D2D2D2D2D2D2D2D2D2D2D2D16
:101B00002D2D2D2D2D2D2D2D2D2D2D2D2D2D2D2D05
:101B10002D00426C61636B626F78204572726F7248
:101B200000426C61636B626F78204572726F720065
:101B30003B0063726561746546696C6542756666F3
:101B400065723A2066696C654275666665725369AE
:101B50007A652069733A200063726561746546692D
:101B60006C654275666665723A2052414D20616C23
:101B70006C6F63206661696C6564210063726561E6
:101B8000746546696C654275666665723A20576190
:101B9000726E696E672E2046696C65206275666696
:101BA000657220616C72656164792065786973740F
:101BB000732E20536B697070696E672E2E2E006332
:101BC000726561746546696C654275666665723AF0
:101BD000205761726E696E672E2066696C6542756A
:101BE0006666657253697A65206973207A65726FDB
:101BF0002E2044617461206C6F6767696E6720698D
:101C000073206E6F7420706F737369626C652E0041
:101C10007365745061636B65744366675061796C7A
:101C20006F616453697A653A2052414D2072657341
:101C3000697A65206661696C65642100736574501A
:101C400061636B65744366675061796C6F6164535F
:101C5000697A653A2052414D20616C6C6F63206651
:101C600061696C656421003A204552524F52003A36
:101C7000204552524F52003A20456E61626C6564B5
:101C8000003A20456E61626C6564002D20554E4B14
:101C90004E4F574E2043617365002D20554E4B4EDD
:101CA0004F574E20436173650053595320456E6171
:101CB000626C653A200053595320456E61626C6531
:101CC0003A2000656E643A207061636B657455421A
:101CD000584E415650565420686173206265656EB7
:101CE0002064656C6574656400656E643A2070619B
:101CF000636B65745542584E41565056542D3E63A1
:101D0000616C6C6261636B44617461206861732013
:101D10006265656E2064656C6574656400656E64FB
:101D20003A207468652066696C6520627566666530
:101D30007220686173206265656E2064656C6574ED
:101D400065642E20596F752077696C6C206E65650F
:101D50006420746F2063616C6C2073657446696CD9
:101D60006542756666657253697A65206265666F5D
:101D70007265202E626567696E20746F20637265DC
:101D80006174652061206E6577206F6E652E002D71
:101D90002044697361626C6564002D20446973613D
:101DA000626C656400556E61626C6520746F2044DE
:101DB000697361626C6500556E61626C6520746F59
:101DC0002044697361626C6500202D20556E6B6E36
:101DD0006F776E204361736500202D20556E6B6E0A
:101DE0006F776E20436173650053595320446973C4
:101DF00061626C653A2000535953204469736162F3
:101E00006C653A20004552524F5220436F64653A48
:101E100020004552524F5220436F64653A200045DE
:101E200052524F5220436F64653A20004552524F40
:101E30005220436F64653A20002D2D2D2D2D2D2D20
:101E40002D2D2D2D2D2D2D2D2D2D2D2D2D2D2D2DC2
:101E50002D2D2D2D2D2D2D2D2D2D2D2D2D002D2DDF
:101E60002D2D2D2D2D2D2D2D2D2D2D2D2D2D2D2DA2
:101E70002D2D2D2D2D2D2D2D2D2D2D2D2D2D2D2D92
:101E80002D2D002D2D2D2D2D2D2D2D2D2D2D2D2DAF
:101E90002D2D2D2D2D2D2D2D2D2D2D2D2D2D2D2D72
:101EA0002D2D2D2D2D2D2D002D2D2D2D2D2D2D2D8F
:101EB0002D2D2D2D2D2D2D2D2D2D2D2D2D2D2D2D52
:101EC0002D2D2D2D2D2D2D2D2D2D2D2D004D6F74C6
:101ED0006F7220546573742032202D205374656511
:101EE00072696E67004D6F746F7220546573742051
:101EF00032202D205374656572696E67002D2D2D7B
:101F00002D2D2D2D2D2D2D2D2D2D2D2D2D2D2D2D01
:101F10002D2D2D2D2D2D2D2D2D2D2D2D2D2D2D2DF1
:101F20002D002D2D2D2D2D2D2D2D2D2D2D2D2D2D0E
:101F30002D2D2D2D2D2D2D2D2D2D2D2D2D2D2D2DD1
:101F40002D2D2D2D2D2D0052616D70696E67206431
:101F50006F776E0052616D70696E6720646F776E87
:101F6000002D2D2D2D2D2D2D2D2D2D2D2D2D2D2DCE
:101F70002D2D2D2D2D2D2D2D2D2D2D2D2D2D2D2D91
:101F80002D2D2D2D2D002D2D2D2D2D2D2D2D2D2DAE
:101F90002D2D2D2D2D2D2D2D2D2D2D2D2D2D2D2D71
:101FA0002D2D2D2D2D2D2D2D2D2D0052616D706976
:101FB0006E67207570202D204257440052616D706D
:101FC000696E67207570202D20425744002D2D2DFD
:101FD0002D2D2D2D2D2D2D2D2D2D2D2D2D2D2D2D31
:101FE0002D2D2D2D2D2D2D2D2D2D2D2D2D2D2D2D21
:101FF0002D002D2D2D2D2D2D2D2D2D2D2D2D2D2D3E
:102000002D2D2D2D2D2D2D2D2D2D2D2D2D2D2D2D00
:102010002D2D2D2D2D2D0052616D70696E67206460
:102020006F776E0052616D70696E6720646F776EB6
:10203000002D2D2D2D2D2D2D2D2D2D2D2D2D2D2DFD
:102040002D2D2D2D2D2D2D2D2D2D2D2D2D2D2D2DC0
:102050002D2D2D2D2D002D2D2D2D2D2D2D2D2D2DDD
:102060002D2D2D2D2D2D2D2D2D2D2D2D2D2D2D2DA0
:102070002D2D2D2D2D2D2D2D2D2D0052616D7069A5
:102080006E67207570202D204657440052616D7098
:10209000696E67207570202D20465744002D2D2D28
:1020A0002D2D2D2D2D2D2D2D2D2D2D2D2D2D2D2D60
:1020B0002D2D2D2D2D2D2D2D2D2D2D2D2D2D2D2D50
:1020C0002D002D2D2D2D2D2D2D2D2D2D2D2D2D2D6D
:1020D0002D2D2D2D2D2D2D2D2D2D2D2D2D2D2D2D30
:1020E0002D2D2D2D2D2D004D6F746F722054657385
:1020F000742032202D205374656572696E67004D1F
:102100006F746F7220546573742032202D205374C5
:10211000656572696E67002D2D2D2D2D2D2D2D2DB0
:102120002D2D2D2D2D2D2D2D2D2D2D2D2D2D2D2DDF
:102130002D2D2D2D2D2D2D2D2D2D2D002D2D2D2DFC
:102140002D2D2D2D2D2D2D2D2D2D2D2D2D2D2D2DBF
:102150002D2D2D2D2D2D2D2D2D2D2D2D2D2D2D2DAF
:10216000004D6F746F7220546573742031202D20E0
:102170004C696E6561722052616D70004D6F746FB5
:102180007220546573742031202D204C696E656176
:10219000722052616D700020002000200049442010
:1021A00020444C43202020444154410049442020F5
:1021B000444C4320202044415441002D2D2D2D2DF1
:1021C0002D2D2043414E2052656164202D2D2D2D53
:1021D0002D2D2D2D2D2D002D2D2D2D2D2D2D204353
:1021E000414E2052656164202D2D2D2D2D2D2D2D3C
:1021F0002D2D002D2D2D2D2D2D2D2D2D2D2D2D2D3C
:102200002D2D2D2D2D2D2D2D2D2D2D2D2D2D2D2DFE
:102210002D2D2D2D2D2D2D002D2D2D2D2D2D2D2D1B
:102220002D2D2D2D2D2D2D2D2D2D2D2D2D2D2D2DDE
:102230002D2D2D2D2D2D2D2D2D2D2D2D00206D7382
:1022400000206D7300474E5353206665656420730C
:1022500074617274696E6720666F723A2000474E2F
:1022600053532066656564207374617274696E6788
:1022700020666F723A20002D2D2D2D2D2D2D2D2D08
:102280002D2D2D2D2D2D2D2D2D2D2D2D2D2D2D2D7E
:102290002D2D2D2D2D2D2D2D2D2D2D002D2D2D2D9B
:1022A0002D2D2D2D2D2D2D2D2D2D2D2D2D2D2D2D5E
:1022B0002D2D2D2D2D2D2D2D2D2D2D2D2D2D2D2D4E
:1022C00000206D7300206D730053425553206665E6
:1022D0006564207374617274696E6720666F723A08
:1022E0002000534255532066656564207374617203
:1022F00074696E6720666F723A200041542B434721
:102300004D520D0041542B4347534E0D002D2D2DA2
:102310002D2D2D2D2D2D2D2D2D2D2D2D2D2D2D2DED
:102320002D2D2D2D2D2D2D2D2D2D2D2D2D2D2D2DDD
:102330002D002D2D2D2D2D2D2D2D2D2D2D2D2D2DFA
:102340002D2D2D2D2D2D2D2D2D2D2D2D2D2D2D2DBD
:102350002D2D2D2D2D2D002E002E004F6E206120B5
:102360007363616C65206F66203020746F20352C9C
:10237000207369676E616C207175616C6974792076
:1023800069732063757272656E746C7920004F6E8C
:102390002061207363616C65206F66203020746F4C
:1023A00020352C207369676E616C207175616C69D2
:1023B00074792069732063757272656E746C79200C
:1023C000005369676E616C5175616C697479206640
:1023D00061696C65643A206572726F72200053699E
:1023E000676E616C5175616C697479206661696CA6
:1023F00065643A206572726F7220002E002E0049CB
:102400004D45492069732000494D45492069732095
:1024100000676574494D4549206661696C65643A99
:10242000206572726F722000676574494D454920BE
:102430006661696C65643A206572726F7220002E65
:10244000002E004669726D77617265205665727361
:10245000696F6E20697320004669726D77617265DD
:102460002056657273696F6E206973200046697229
:102470006D776172652056657273696F6E20666153
:10248000696C65643A206572726F722000466972E9
:102490006D776172652056657273696F6E20666133
:1024A000696C65643A206572726F72200045525201
:1024B0004F52004552524F52005369676E616C2073
:1024C0005175616C6974793A20005369676E616C6B
:1024D000205175616C6974793A20004972696469A8
:1024E000756D3A20004972696469756D3A20002063
:1024F000286D6D290020286D6D2900093344205076
:102500006F736974696F6E616C204163637572618A
:1025100063793A200009334420506F736974696FFE
:102520006E616C2041636375726163793A200020AB
:10253000286D6D290020286D6D290009416C743AC1
:10254000200009416C743A20002028646567202A25
:102550002031305E2D3729002028646567202A202D
:1025600031305E2D372900094C6F6E673A20000923
:102570004C6F6E673A20002028646567202A20315E
:10258000305E2D3729002028646567202A203130ED
:102590005E2D3729004C61743A20004C61743A205A
:1025A00000474E53533A2000474E53533A20003AC7
:1025B000003A002D002D002D002D002D002D004390
:1025C000757272656E742074696D653A200043758A
:1025D0007272656E742074696D653A200076616C64
:1025E00069640076616C6964006E6F742076616C5A
:1025F0006964006E6F742076616C69640054696D63
:102600006520616E6420446174652069733A20001E
:1026100054696D6520616E6420446174652069733E
:102620003A20002D2D2D2D2D2D2D2D2D2D2D2D2D07
:102630002D2D2D2D2D2D2D2D2D2D2D2D2D2D2D2DCA
:102640002D2D2D2D2D2D2D002D2D2D2D2D2D2D2DE7
:102650002D2D2D2D2D2D2D2D2D2D2D2D2D2D2D2DAA
:102660002D2D2D2D2D2D2D2D2D2D2D2D00206D734E
:1026700000206D7300474E535320666565642073D8
:1026800074617274696E6720666F723A2000474EFB
:1026900053532066656564207374617274696E6754
:1026A00020666F723A20002D2D2D2D2D2D2D2D2DD4
:1026B0002D2D2D2D2D2D2D2D2D2D2D2D2D2D2D2D4A
:1026C0002D2D2D2D2D2D2D2D2D2D2D002D2D2D2D67
:1026D0002D2D2D2D2D2D2D2D2D2D2D2D2D2D2D2D2A
:1026E0002D2D2D2D2D2D2D2D2D2D2D2D2D2D2D2D1A
:1026F000004552524F52004552524F520009207A23
:102700003A200009207A3A20000920793A2000096D
:1027100020793A2000783A2000783A20004163631B
:10272000656C65726F6D657465723A200041636314
:10273000656C65726F6D657465723A2000206D730B
:1027400000206D7300416363656C65726F6D657425
:1027500065722066656564207374617274696E6762
:1027600020666F723A2000416363656C65726F6D1D
:10277000657465722066656564207374617274693E
:102780006E6720666F723A2000094D65616E3A20CF
:1027900000094D65616E3A20000954333A20000962
:1027A00054333A20000954323A20000954323A2076
:1027B000000954313A20000954313A200054656D23
:1027C0007065726174757265733A200054656D703E
:1027D00065726174757265733A2000206D73002014
:1027E0006D7300546865726D6973746F72206665ED
:1027F0006564207374617274696E6720666F723AE3
:102800002000546865726D6973746F722066656527
:1028100064207374617274696E6720666F723A2007
:10282000004D4F44554C4520544553543A20556E65
:102830006B6E6F776E2053797374656D204D6F6486
:10284000756C653A20004D4F44554C452054455316
:10285000543A20556E6B6E6F776E205379737465A2
:102860006D204D6F64756C653A200042617474652B
:10287000727920566F6C746167653A20004261740A
:102880007465727920566F6C746167653A200042F6
:10289000617474657279204C6576656C3A200042EB
:1028A000617474657279204C6576656C3A20002DF0
:1028B0002D2D2D2D2D2D2D2D2D2D2D2D2D2D2D2D48
:1028C0002D2D2D2D2D2D2D2D2D2D2D2D2D2D2D2D38
:1028D0002D2D2D002D2D2D2D2D2D2D2D2D2D2D2D55
:1028E0002D2D2D2D2D2D2D2D2D2D2D2D2D2D2D2D18
:1028F0002D2D2D2D2D2D2D2D0052756E6E696E678F
:102900002066756C6C2073797374656D20636865DF
:10291000636B0052756E6E696E672066756C6C2015
:1029200073797374656D20636865636B002D2D2D5D
:102930002D2D2D2D2D2D2D2D2D2D2D2D2D2D2D2DC7
:102940002D2D2D2D2D2D2D2D2D2D2D2D2D2D2D2DB7
:102950002D002D2D2D2D2D2D2D2D2D2D2D2D2D2DD4
:102960002D2D2D2D2D2D2D2D2D2D2D2D2D2D2D2D97
:102970002D2D2D2D2D2D002D2D2D2D2D2D2D2D2DB4
:102980002D2D2D2D2D2D2D2D2D2D2D2D2D2D2D2D77
:102990002D2D2D2D2D2D2D2D2D2D2D002D2D2D2D94
:1029A0002D2D2D2D2D2D2D2D2D2D2D2D2D2D2D2D57
:1029B0002D2D2D2D2D2D2D2D2D2D2D2D2D2D2D2D47
:1029C000004572726F723A204261636B75702043EA
:1029D0005055206F66666C696E652C206174746555
:1029E0006D7074696E6720746F2052657365742E04
:1029F000004572726F723A204261636B75702043BA
:102A00005055206F66666C696E652C206174746524
:102A10006D7074696E6720746F2052657365742ED3
:102A2000002D2D2D2D2D2D2D2D2D2D2D2D2D2D2D03
:102A30002D2D2D2D2D2D2D2D2D2D2D2D2D2D2D2DC6
:102A40002D2D2D2D2D002D2D2D2D2D2D2D2D2D2DE3
:102A50002D2D2D2D2D2D2D2D2D2D2D2D2D2D2D2DA6
:102A60002D2D2D2D2D2D2D2D2D2D002D2D2D2D2DC3
:102A70002D2D2D2D2D2D2D2D2D2D2D2D2D2D2D2D86
:102A80002D2D2D2D2D2D2D2D2D2D2D2D2D2D2D00A3
:102A90002D2D2D2D2D2D2D2D2D2D2D2D2D2D2D2D66
:102AA0002D2D2D2D2D2D2D2D2D2D2D2D2D2D2D2D56
:102AB0002D2D2D2D004572726F723A204261636B8D
:102AC0007570204350552048656172746265617469
:102AD0002054696D656F75742C20617474656D7018
:102AE00074696E6720746F2052657365742042614B
:102AF000636B75702053797374656D2E0045727227
:102B00006F723A204261636B7570204350552048C4
:102B100065617274626561742054696D656F757466
:102B20002C20617474656D7074696E6720746F20F9
:102B30005265736574204261636B757020537973BD
:102B400074656D2E002D2D2D2D2D2D2D2D2D2D2D22
:102B50002D2D2D2D2D2D2D2D2D2D2D2D2D2D2D2DA5
:102B60002D2D2D2D2D2D2D2D2D002D2D2D2D2D2DC2
:102B70002D2D2D2D2D2D2D2D2D2D2D2D2D2D2D2D85
:102B80002D2D2D2D2D2D2D2D2D2D2D2D2D2D005778
:102B90006179706F696E742066696C6520646F6519
:102BA000736E277420636F6E7461696E20696E6442
:102BB000657800576179706F696E742066696C651D
:102BC00020646F65736E277420636F6E7461696E25
:102BD00020696E646578004572726F72206F70654F
:102BE0006E696E6720776179706F696E74732066A5
:102BF000696C65004572726F72206F70656E696EE8
:102C00006720776179706F696E74732066696C658F
:102C100000446F6E65204C6F6164696E6700446F9D
:102C20006E65204C6F6164696E67004C6F6164690A
:102C30006E6720576179706F696E742066696C6584
:102C4000004C6F6164696E6720576179706F696EBF
:102C5000742066696C65004572726F72206F7065D2
:102C60006E696E6720776179706F696E7473206624
:102C7000696C65004572726F72206F70656E696E67
:102C80006720776179706F696E74732066696C650F
:102C900000466C617368696E6720576179706F696F
:102CA0006E742066696C6520746F20454550524FE4
:102CB0004D00466C617368696E6720576179706F6B
:102CC000696E742066696C6520746F2045455052AA
:102CD0004F4D0052756E6E696E672066756C6C2084
:102CE000726F75746520746573740052756E6E69C9
:102CF0006E672066756C6C20726F757465207465E4
:102D000073740009206C6F6E3A200009206C6F6E9E
:102D10003A200009202D20576179706F696E742E5A
:102D20006373762031737420776179706F696E7484
:102D30003A204C61743A200009202D2057617970A7
:102D40006F696E742E6373762031737420776179A6
:102D5000706F696E743A204C61743A200009206CDF
:102D60006F6E3A200009206C6F6E3A200009202D0A
:102D700020454550524F4D20317374207761797052
:102D80006F696E743A204C61743A200009202D203E
:102D9000454550524F4D2031737420776179706FE3
:102DA000696E743A204C61743A20002D2D2D2D2D22
:102DB0002D2D2D2D2D2D2D2D2D2D2D2D2D2D2D2D43
:102DC0002D2D2D2D2D2D2D2D2D2D2D2D2D2D2D0060
:102DD0002D2D2D2D2D2D2D2D2D2D2D2D2D2D2D2D23
:102DE0002D2D2D2D2D2D2D2D2D2D2D2D2D2D2D2D13
:102DF0002D2D2D2D000920576179706F696E742E6D
:102E000063737620726F757465204C656E677468A5
:102E10003A20000920576179706F696E742E6373D0
:102E20007620726F757465204C656E6774683A2001
:102E300000576179706F696E742E63737620726FBC
:102E400075746520496E6465783A20005761797021
:102E50006F696E742E63737620726F757465204986
:102E60006E6465783A20000920454550524F4D2048
:102E7000726F757465204C656E6774683A2000093E
:102E800020454550524F4D20726F757465204C653A
:102E90006E6774683A2000454550524F4D20726F5E
:102EA00075746520496E6465783A20004545505236
:102EB0004F4D20726F75746520496E6465783A20B5
:102EC000002D2D2D2D2D2D2D2D2D2D2D2D2D2D2D5F
:102ED0002D2D2D2D2D2D2D2D2D2D2D2D2D2D2D2D22
:102EE0002D2D2D2D2D002D2D2D2D2D2D2D2D2D2D3F
:102EF0002D2D2D2D2D2D2D2D2D2D2D2D2D2D2D2D02
:102F00002D2D2D2D2D2D2D2D2D2D0044697374610A
:102F10006E63653A200044697374616E63653A209C
:102F200000206C6F6E3A2000206C6F6E3A200020FB
:102F30006C61743A2000206C61743A2000092061B1
:102F40006E642009000920616E64200900206C6F06
:102F50006E3A2000206C6F6E3A2000206C61743A4B
:102F60002000206C61743A2000436865636B696ED1
:102F7000672072616E6765206265747765656E00B3
:102F8000436865636B696E672072616E6765206276
:102F900065747765656E0009204F70657261746FA6
:102FA000723A200009204F70657261746F723A2086
:102FB000000920526F757465204C656E6774683A1D
:102FC00020000920526F757465204C656E67746827
:102FD0003A2000526F75746520496E6465783A2016
:102FE00000526F75746520496E6465783A2000431D
:102FF0006F6F7264696E6174657320666F726D6164
:1030000074204E4F542076616C69642100436F6FC9
:103010007264696E6174657320666F726D6174208D
:103020004E4F542076616C69642100436F6F726467
:10303000696E6174657320666F726D61742076616C
:103040006C69642100436F6F7264696E61746573AB
:1030500020666F726D61742076616C696421006C0A
:103060006F6E6769747564652072616E6765206D47
:1030700075737420626520282D313830203C206C17
:103080006F6E203C2031383029202E2E2E20006CEF
:103090006F6E6769747564652072616E6765206D17
:1030A00075737420626520282D313830203C206CE7
:1030B0006F6E203C2031383029202E2E2E20006CBF
:1030C000617469747564652072616E6765206D75E1
:1030D000737420626520282D3930203C206C617487
:1030E000203C20393029202E2E2E20006C6174695E
:1030F000747564652072616E6765206D75737420E8
:10310000626520282D3930203C206C6174203C20E1
:10311000393029202E2E2E2000636F6F7264696E65
:1031200061746573206D757374206265206E6F6EB7
:10313000207A65726F202E2E2E2000636F6F7264CE
:10314000696E61746573206D757374206265206E9D
:103150006F6E207A65726F202E2E2E20004D6F64C8
:103160006520627574746F6E2070726573732C20A5
:103170006368616E67696E67206D6F646520746F48
:10318000204D6F6465204C696272617279004D6FE9
:10319000646520627574746F6E2070726573732C31
:1031A000206368616E67696E67206D6F6465207467
:1031B0006F204D6F6465204C6962726172790045C1
:1031C0006D657267656E6379204D6F64652C20496B
:1031D0006E70757420426C6F636B65642100456D81
:1031E000657267656E6379204D6F64652C20496E4A
:1031F00070757420426C6F636B656421004D6F6461
:1032000065205365743A20004D6F646520536574E2
:103210003A20003A20496E76616C6964004D6F7403
:103220006F72205374617475732000090009205473
:10323000656D70657261747572653A20000920725F
:10324000706D3A200009204D6F746F7220537461C5
:1032500074653A2000436F6E74726F6C2076616CF7
:1032600075653A2000090009004572726F723A20B4
:1032700000090009005761726E696E673A20007C90
:103280003C3E5E2B3D3F2F5B5D3B2C2A225C0000C9
:10329000002100240027002A002D00300033000107
:1032A000010000040107010A010000220025002896
:1032B000002B002E0031003400020100000501083F
:1032C000010B01000020002300260029002C002F04
:1032D0000032000001000003010601090105050597
:1032E00005070508080808020202020A0A0808047D
:1032F00004040401010101010101010303030303AB
:10330000030303040707070C0C0C0C0C0C0C0C0239
:1033100002020206060606060606060B0B0B0B0B40
:103320000B0B0B0102102020080810204010204039
:103330008002010201080402010102040810204079
:103340008080402010080402018004020180402097
:1033500010080402010804020101020408102040C0
:1033600080010204081020408000000A0B02090CB2
:103370000D0E08070304010000000000000000001B
:10338000000000000000000000000000000000003D
:1033900000000000001211100000000000000000FA
:1033A00000000000000000000000000000000023FA
:1033B0002D2D2D2D2D2D2D2D2D2D2D2D2D2D2D2D3D
:1033C0002D2D2D2D2D2D2D2D2D2D2D2300232D2D6E
:1033D0002D2D2D2D2D2D2D2D2D2D2D2D2D2D2D2D1D
:1033E0002D2D2D2D2D2D2D2D2D230020230020239F
:1033F0000023202053797374656D205665727369BC
:103400006F6E3A200023202053797374656D205627
:10341000657273696F6E3A200023202020202020DF
:1034200020234445425547204D4F4445232020202A
:1034300020202020202300232020202020202023A3
:103440004445425547204D4F44452320202020200D
:10345000202020230023202020202047656F526F4A
:10346000766572204669726D776172652020202032
:1034700020230023202020202047656F526F76658F
:1034800072204669726D77617265202020202023AA
:1034900000232D2D2D2D2D2D2D2D2D2D2D2D2D2D93
:1034A0002D2D2D2D2D2D2D2D2D2D2D2D2D2300238D
:1034B0002D2D2D2D2D2D2D2D2D2D2D2D2D2D2D2D3C
:1034C0002D2D2D2D2D2D2D2D2D2D2D23002D2D2D63
:1034D0002D2D2D2D2D2D2D2D2D2D2D2D2D2D2D2D1C
:1034E0002D2D2D2D2D2D2D2D2D2D2D2D2D2D2D2D0C
:1034F0002D002D2D2D2D2D2D2D2D2D2D2D2D2D2D29
:103500002D2D2D2D2D2D2D2D2D2D2D2D2D2D2D2DEB
:103510002D2D2D2D2D2D004261636B757020435094
:1035200055206F6E6C696E65004261636B7570202B
:10353000435055206F6E6C696E65002D2D2D2D2D1D
:103540002D2D2D2D2D2D2D2D2D2D2D2D2D2D2D2DAB
:103550002D2D2D2D2D2D2D2D2D2D2D2D2D2D2D00C8
:103560002D2D2D2D2D2D2D2D2D2D2D2D2D2D2D2D8B
:103570002D2D2D2D2D2D2D2D2D2D2D2D2D2D2D2D7B
:103580002D2D2D2D002D2D2D2D2D2D2D2D2D2D2D98
:103590002D2D2D2D2D2D2D2D2D2D2D2D2D2D2D2D5B
:1035A0002D2D2D2D2D2D2D2D2D002D2D2D2D2D2D78
:1035B0002D2D2D2D2D2D2D2D2D2D2D2D2D2D2D2D3B
:1035C0002D2D2D2D2D2D2D2D2D2D2D2D2D2D005332
:1035D000797374656D205374617475733A20005368
:1035E000797374656D205374617475733A20004863
:1035F00065617274626561742053797374656D20BE
:10360000436865636B3A2000486561727462656166
:10361000742053797374656D20436865636B3A2039
:10362000002D2D2D2D2D2D2D2D2D2D2D2D2D2D2DF7
:103630002D2D2D2D2D2D2D2D2D2D2D2D2D2D2D2DBA
:103640002D2D2D2D2D002D2D2D2D2D2D2D2D2D2DD7
:103650002D2D2D2D2D2D2D2D2D2D2D2D2D2D2D2D9A
:103660002D2D2D2D2D2D2D2D2D2D00426C61636BBB
:10367000626F78204572726F7200426C61636B6298
:103680006F78204572726F72003B000909000909CA
:10369000002D2D2D2D2D2D2D2D2D2D2D2D2D2D2D87
:1036A0002D2D2D2D2D2D2D2D2D2D2D2D2D2D2D2D4A
:1036B0002D2D2D2D2D002D2D2D2D2D2D2D2D2D2D67
:1036C0002D2D2D2D2D2D2D2D2D2D2D2D2D2D2D2D2A
:1036D0002D2D2D2D2D2D2D2D2D2D00456E64206F82
:1036E000662073746F7261676500456E64206F6653
:1036F0002073746F726167650046696C6573206939
:103700006E2073797374656D3A0046696C65732039
:10371000696E2073797374656D3A0046696C652033
:103720006E6F7420666F756E64210046696C65204B
:103730006E6F7420666F756E6421004F70656E69E0
:103740006E672066696C653A20004F70656E696E21
:10375000672066696C653A200046696C65206E6F6B
:103760007420666F756E64210046696C65206E6F0B
:103770007420666F756E642100456E64206F66204C
:1037800046696C6500456E64206F662046696C650D
:1037900000446F776E6C6F6164696E672066696C58
:1037A000653A2000446F776E6C6F6164696E6720C4
:1037B00066696C653A200046696C652052656D6FDC
:1037C0007665640046696C652052656D6F76656448
:1037D0000044656C6574696E672066696C653A20A3
:1037E0000044656C6574696E672066696C653A2093
:1037F0000046696C65206E6F7420666F756E64009C
:1038000046696C65206E6F7420666F756E64004645
:10381000696C65206E6F7420666F756E642100465A
:10382000696C65206E6F7420666F756E642100454B
:103830006E64206F662046696C6500456E64206F7B
:10384000662046696C65005072696E74696E672007
:10385000426C61636B626F783A20005072696E74DB
:10386000696E6720426C61636B626F783A20004238
:103870004C41434B424F5820434C45415245440034
:10388000424C41434B424F5820434C4541524544E2
:1038900000424C41434B424F58204552524F520038
:1038A000424C41434B424F58204552524F52004EDA
:1038B00041434B004E41434B004D6F6465206E6F9A
:1038C0007420666F756E6421004D6F6465206E6FA5
:1038D0007420666F756E6421004D616E75616C2099
:1038E00053747261746567792053657420746F3AFC
:1038F00020004D616E75616C205374726174656750
:10390000792053657420746F3A20004E41434B0078
:103910004E41434B004E41434B004E41434B0053FD
:10392000696D756C6174696E672053797374656D28
:103930002048616C7420666F722036302073656396
:103940000053696D756C6174696E67205379737487
:10395000656D2048616C7420666F7220363020736C
:103960006563005669727475616C20486561727494
:1039700062656174005669727475616C2048656196
:10398000727462656174004261636B757020537973
:103990007374656D205374617475733A20004261CD
:1039A000636B75702053797374656D205374617403
:1039B00075733A20004D616E75616C2052657365B8
:1039C00074206F66204261636B7570205379737445
:1039D000656D2E004D616E75616C20526573657466
:1039E000206F66204261636B757020537973746534
:1039F0006D2E002E20002E20002E002E00310031D2
:103A0000002E20002E20002E002E00320032002E2C
:103A100020002E20002E002E00330033004E4143A4
:103A20004B004E41434B002D2D2D2D2D2D2D2D2D99
:103A30002D2D2D2D2D2D2D2D2D2D2D2D2D2D2D2DB6
:103A40002D2D2D2D2D2D2D2D2D2D2D002D2D2D2DD3
:103A50002D2D2D2D2D2D2D2D2D2D2D2D2D2D2D2D96
:103A60002D2D2D2D2D2D2D2D2D2D2D2D2D2D2D2D86
:103A7000004D616E75616C2053797374656D2054CF
:103A80006573742053746F70004D616E75616C20A6
:103A900053797374656D20546573742053746F701B
:103AA000002D2D2D2D2D2D2D2D2D2D2D2D2D2D2D73
:103AB0002D2D2D2D2D2D2D2D2D2D2D2D2D2D2D2D36
:103AC0002D2D2D2D2D002D2D2D2D2D2D2D2D2D2D53
:103AD0002D2D2D2D2D2D2D2D2D2D2D2D2D2D2D2D16
:103AE0002D2D2D2D2D2D2D2D2D2D002D2D2D2D2D33
:103AF0002D2D2D2D2D2D2D2D2D2D2D2D2D2D2D2DF6
:103B00002D2D2D2D2D2D2D2D2D2D2D2D2D2D2D0012
:103B10002D2D2D2D2D2D2D2D2D2D2D2D2D2D2D2DD5
:103B20002D2D2D2D2D2D2D2D2D2D2D2D2D2D2D2DC5
:103B30002D2D2D2D0054657374696E67204D6F64B3
:103B4000756C653A200054657374696E67204D6F1B
:103B500064756C653A20004D616E75616C20537917
:103B60007374656D20526573657420696E3A200028
:103B70004D616E75616C2053797374656D2052656B
:103B800073657420696E3A200053797374656D20F3
:103B90005374617475733A200053797374656D20A2
:103BA0005374617475733A20004D616E75616C20B9
:103BB00053797374656D2053746174757320436811
:103BC00065636B004D616E75616C2053797374652C
:103BD0006D2053746174757320436865636B0009CD
:103BE0000009004E41434B004E41434B004D616E76
:103BF00075616C204F76657272696465206F66200E
:103C00004D6F64756C653A20004D616E75616C2076
:103C10004F76657272696465206F66204D6F6475BA
:103C20006C653A2000414C4C2053595354454D5338
:103C300000414C4C2053595354454D53004D616E37
:103C400075616C2044697361626C65206F66204DFC
:103C50006F64756C653A20004D616E75616C20442F
:103C6000697361626C65206F66204D6F64756C6569
:103C70003A2000414C4C2053595354454D53004178
:103C80004C4C2053595354454D53004D616E756152
:103C90006C20456E61626C65206F66204D6F6475A7
:103CA0006C653A20004D616E75616C20456E6162F5
:103CB0006C65206F66204D6F64756C653A2000203E
:103CC0004C6F6E3A2000204C6F6E3A20004C6174AD
:103CD0003A20004C61743A2000204C6F6E3A20006C
:103CE000204C6F6E3A20004C61743A20004C617495
:103CF0003A20004E41434B004E41434B00220022EC
:103D000000526563656976656420636F6D6D616EF1
:103D10006420284442475F505254293A20220052DE
:103D20006563656976656420636F6D6D616E64209F
:103D3000284442475F505254293A20220009204C1F
:103D40006F6E6769747564653A200009204C6F6E68
:103D50006769747564653A20004C617469747564B0
:103D6000653A20004C617469747564653A20006995
:103D70006E69745061636B65745542584E41564884
:103D800050504F53454345463A2052414D20616CB7
:103D90006C6F63206661696C6564210041542B433C
:103DA00053510D0049324320777269746520776161
:103DB00073206E6F74207375636365737366756CBF
:103DC000210D0A000D0A003E3E20003C3C20000D63
:103DD0000A0057616974696E6720666F72207265A8
:103DE00073706F6E7365200053424452494E4720F2
:103DF000616C657274207365656E210D0A00696ED1
:103E000069745061636B657455425843464752412B
:103E100054453A2052414D20616C6C6F63206661BD
:103E2000696C65642100696E69745061636B6574C7
:103E30005542584E41565056543A2052414D2061F9
:103E40006C6C6F63206661696C65642100206D7322
:103E500065632E204E6F207061636B657420726500
:103E60006365697665642E0077616974466F724E8A
:103E70006F41434B526573706F6E73653A205449BE
:103E80004D454F55542061667465722000206D7356
:103E900065630077616974466F724E6F41434B52A0
:103EA0006573706F6E73653A20434C532F494420FD
:103EB0006D6174636820627574206661696C656405
:103EC000204352432061667465722000206D736543
:103ED000630077616974466F724E6F41434B526560
:103EE00073706F6E73653A206461746120626569F6
:103EF0006E67204F5645525752495454454E2061E3
:103F0000667465722000206D736563007761697463
:103F1000466F724E6F41434B526573706F6E73659F
:103F20003A2076616C6964206461746120776974F9
:103F30006820434C532F4944206D617463682061AD
:103F4000667465722000206D7365632E0077616969
:103F500074466F7241434B526573706F6E73653A6E
:103F60002054494D454F55542061667465722000B8
:103F7000206D7365632E200077616974466F72410E
:103F8000434B526573706F6E73653A2054494D45CB
:103F90004F555420776974682076616C6964206499
:103FA0006174612061667465722000206D736563C1
:103FB0000077616974466F7241434B526573706F4D
:103FC0006E73653A20494E56414C494420646174F1
:103FD0006120616E6420494E56414C494420414362
:103FE0004B207265636569766564206166746572ED
:103FF0002000206D7365630077616974466F7241BC
:10400000434B526573706F6E73653A2056414C494D
:1040100044206461746120616E6420494E56414CB5
:1040200049442041434B207265636569766564208D
:1040300061667465722000206D7365630077616945
:1040400074466F7241434B526573706F6E73653A7D
:10405000206461746120776173204E4F5441434B5B
:104060004E4F574C454447454420284E41434B2929
:104070002061667465722000206D7365630077614E
:104080006974466F7241434B526573706F6E73650E
:104090003A20435243206661696C6564206166740E
:1040A00065722000206D7365630077616974466FE7
:1040B0007241434B526573706F6E73653A20646151
:1040C0007461206265696E67204F564552575249A8
:1040D0005454454E2061667465722000206D7365EE
:1040E000630077616974466F7241434B5265737028
:1040F0006F6E73653A206E6F206461746120616E2B
:10410000642076616C69642041434B20616674656C
:10411000722000206D7365630077616974466F7269
:1041200041434B526573706F6E73653A2076616CD4
:104130006964206461746120616E642076616C69D9
:10414000642041434B207265636569766564206134
:1041500066746572200020002000200020002000EE
:1041600020002000200073656E64537069436F6DFA
:104170006D616E643A200073656E64537069436FBD
:104180006D6D616E643A206E6F206D656D6F727932
:1041900020616C6C6F636174696F6E20666F722052
:1041A00053504920427566666572210073656E64DE
:1041B000436F6D6D616E643A2057616974696E6713
:1041C00020666F72204E6F2041434B2072657370E2
:1041D0006F6E73650073656E64436F6D6D616E64C1
:1041E0003A2057616974696E6720666F7220414397
:1041F0004B20726573706F6E73650053656E64203B
:1042000049324320436F6D6D616E64206661696C55
:104210006564000A53656E64696E673A20006368DE
:1042200065636B55626C6F785532433A20752D6229
:104230006C6F78206572726F722C206D6F64756C74
:1042400065206E6F74207265616479207769746887
:10425000206461746120283746206572726F72296C
:104260000020627974657300636865636B55626CE6
:104270006F784932433A2052656164696E67200065
:104280002062797465732072656365697665640080
:10429000636865636B55626C6F784932433A204CB2
:1042A00061726765207061636B6574206F662000C2
:1042B000636865636B55626C6F784932433A204F8F
:1042C0004B2C207A65726F20627974657320617659
:1042D00061696C61626C6500636865636B55626CF3
:1042E0006F784932433A20752D626C6F7820627581
:1042F000673F204C656E677468206C736220697339
:1043000020307846462E20693263506F6C6C696E9F
:1043100067576169742069732000636865636B5532
:10432000626C6F784932433A204932432065727299
:104330006F723A207265717565737446726F6D2085
:10434000307846442072657475726E65642000632F
:104350006865636B55626C6F784932433A20493225
:1043600043206572726F723A20656E645472616E9A
:10437000736D697373696F6E2072657475726E65A3
:10438000642000206C656E3A20002049443A2030B9
:10439000780070726F636573733A2041434B2072EB
:1043A000656365697665642077697468202E6C653D
:1043B0006E20213D20323A20436C6173733A2030E5
:1043C00078002049443A2030780070726F6365733A
:1043D000733A205A45524F204C454E47544820705E
:1043E00061636B65742072656365697665643A2004
:1043F000436C6173733A203078002049443A20308E
:10440000780070726F636573733A20696E636F6DC5
:10441000696E6720226175746F6D61746963222013
:104420006D6573736167653A20436C6173733A20FD
:1044300030780070726F636573733A20226175740F
:104440006F6D6174696322206D65737361676520A8
:10445000636F756C64206F7665727772697465201E
:1044600064617461002049443A2030780070726FB2
:10447000636573733A206D656D6F727920616C6C42
:104480006F636174696F6E206661696C6564206634
:104490006F7220226175746F6D6174696322206D83
:1044A0006573736167653A20436C6173733A2030BA
:1044B000780070726F636573733A206D656D6F720B
:1044C0007920697320616C726561647920616C6C1C
:1044D0006F636174656420666F72207061796C6FC0
:1044E00061644175746F212044656C6574696E6701
:1044F0002E2E2E002049443A2030780070726F63CF
:104500006573733A206765744D61785061796C6F9B
:10451000616453697A652072657475726E65642092
:104520005A45524F212120436C6173733A203078F1
:1045300000206D6178696D756D5F7061796C6F6178
:10454000645F73697A653A200020616374697665F7
:104550005061636B65744275666665723A200070DF
:10456000726F636573735542583A20636F756E744A
:10457000657220686974206D6178696D756D5F7012
:1045800061796C6F61645F73697A65202B203621D5
:104590000070726F636573735542583A2062756696
:1045A000666572206F76657272756E2064657465DB
:1045B00063746564210020726F6C6C696E67436878
:1045C00065636B73756D423A200020726F6C6C6985
:1045D0006E67436865636B73756D413A20002063B5
:1045E0006865636B73756D423A200020636865638C
:1045F0006B73756D413A2000436865636B73756D2D
:10460000206661696C65643A007061636B65744132
:10461000636B20636C617373416E6449446D6174B4
:104620006368007061636B657443666720636C61E7
:104630007373416E6449446D6174636800706163B3
:104640006B657441636B206E6F772076616C696473
:10465000007061636B6574436667206E6F772076C8
:10466000616C6964002052656365697665643A200F
:1046700000496E636F6D696E673A2053697A653AD7
:1046800020002049443A2030780070726F636573CF
:10469000735542583A20696E636F6D696E672022C8
:1046A0006175746F6D6174696322206D65737361E8
:1046B00067653A20436C6173733A2030780020526A
:1046C00065717565737465642049443A20307800DB
:1046D00070726F636573735542583A204E41434B75
:1046E0002072656365697665643A20526571756507
:1046F0007374656420436C6173733A2030780020D2
:1047000049443A2030780070726F63657373554284
:10471000583A206765744D61785061796C6F6164B7
:1047200053697A652072657475726E6564205A45A6
:10473000524F212120436C6173733A20307800205E
:104740005061796C6F61643A2049474E4F5245443D
:10475000002000205061796C6F61643A00204C6544
:104760006E3A20307800307800534156450052416F
:10477000544500505654002049443A003078004DCA
:104780004F4E004346470041434B004E41560043C5
:104790004C533A0073746F72655061636B65743A81
:1047A00020696E73756666696369656E74207370DF
:1047B00061636520617661696C61626C652120448A
:1047C0006174612077696C6C206265206C6F737412
:1047D000210073746F72655061636B65743A206673
:1047E000696C6520627566666572206E6F74206103
:1047F0007661696C61626C65210073746F726546E5
:10480000696C6542797465733A20696E7375666682
:10481000696369656E742073706163652061766198
:10482000696C61626C652120446174612077696CF8
:104830006C206265206C6F7374210073746F7265F5
:1048400046696C6542797465733A2066696C6520C7
:10485000627566666572206E6F7420617661696C40
:1048600061626C652100CCB511241FBECFEFD1E28F
:10487000DEBFCDBF00E00CBF2FE0A4E3B6E001C077
:104880001D92A63EB207E1F716E0A0E0B2E0E6EC2A
:10489000F1EA01E00BBF02C007900D92A433B1070B
:1048A000D9F714E2C4E3D4E200E006C0219701097D
:1048B000802FFE010E9490CEC333D10780E008070D
:1048C000A9F70E9474B80C94E1D00C940000AF9248
:1048D000BF92CF92DF92EF92FF920F931F93CF93ED
:1048E000DF936C017B018B01040F151FEB015E014F
:1048F000AE18BF08C017D10759F06991D601ED91E4
:10490000FC910190F081E02DC6011995892B79F772
:10491000C501DF91CF911F910F91FF90EF90DF9034
:10492000CF90BF90AF900895FC01A089B1898C9180
:10493000A689B78982FD0FC09C91818D8F5F8F738F
:10494000228D821749F0A18DAE0FBF2FB11D5D964C
:104950009C93818F08958C910895FC01538D448D13
:10496000252F30E0842F90E0821B930B541710F01A
:10497000CF96089501970895FC01918D828D981727
:1049800061F0A28DAE0FBF2FB11D5D968C91928DFF
:104990009F5F9F73928F90E008958FEF9FEF089530
:1049A000FC01918D828D981731F0828DE80FF11DF9
:1049B000858D90E008958FEF9FEF0895FC01918D14
:1049C000228D892F90E0805C9F4F821B91098F730D
:1049D000992708958CE19CE00E94DE2421E0892B38
:1049E00009F420E0822F089585EF9CE00E94DE24E8
:1049F00021E0892B09F420E0822F089581E49AE0D8
:104A00000E94DE2421E0892B09F420E0822F089502
:104A1000FC01A48DA80FB92FB11DA35ABF4F2C9133
:104A2000848D90E001968F739927848FA689B7892A
:104A30002C93A089B1898C91837080648C93938D21
:104A4000848D981306C00288F389E02D80818F7DC4
:104A500080830895EF92FF920F931F93CF93DF937C
:104A6000EC0181E0888F9B8D8C8D98131AC0E889AA
:104A7000F989808185FF15C09FB7F894EE89FF8979
:104A80006083E889F98980818370806480839FBF17
:104A900081E090E0DF91CF911F910F91FF90EF9017
:104AA0000895F62E0B8D10E00F5F1F4F0F73112727
:104AB000E02E8C8D8E110CC00FB607FCFACFE88962
:104AC000F989808185FFF5CFCE010E940825F1CFBD
:104AD000EB8DEC0FFD2FF11DE35AFF4FF0829FB7D6
:104AE000F8940B8FEA89FB8980818062CFCFCF93C6
:104AF000DF93EC01888D8823B9F0AA89BB89E88906
:104B0000F9898C9185FD03C0808186FD0DC00FB6AB
:104B100007FCF7CF8C9185FFF2CF808185FFEDCF29
:104B2000CE010E940825E9CFDF91CF91089580E062
:104B300090E0892B29F00E94FE2481110E94000040
:104B400080E090E0892B49F080E090E0892B29F00B
:104B50000E94000081110E94000080E090E0892BFB
:104B600029F00E94F42481110E94000080E090E06E
:104B7000892B29F00E94EA2481110C9400000895E9
:104B80008150823108F05AC0E82FF0E08827E453C2
:104B9000FA4D8F4F0C9490CEEC25F025DE25E425C0
:104BA000E8251E26F325F925FD25032607260B26D5
:104BB000112615261E2619261F26232680918000E1
:104BC0008F77809380000895809180008F7DF9CF4A
:104BD00080918000877FF5CF84B58F7784BD08955D
:104BE00084B58F7DFBCF8091B0008F778093B0002C
:104BF00008958091B0008F7DF9CF809190008F77DC
:104C0000809390000895809190008F7DF9CF8091DE
:104C10009000877FF5CF8091A0008F778093A000D0
:104C200008958091A0008F7DF9CF8091A000877FAB
:104C3000F5CF809120018F77809320010895809196
:104C400020018F7DF9CF80912001877FF5CF909152
:104C50007B00977F90937B008653806480937C00D9
:104C600080917A00806480937A0080917A0086FD3A
:104C7000FCCF80917800909179000895089520915B
:104C80002A07260F3327331F21323105ECF42091F8
:104C9000180AFC0190E080E0243069F082E0089579
:104CA000A0912A072191AC01485F584FA40FB52F5E
:104CB000B11D2C930196861798F380912A07680FEF
:104CC00060932A0780E0089581E00895089508958B
:104CD0000895E091BB078091BA07E81730F4F0E03F
:104CE000EE52F64F808190E008958FEF9FEF089588
:104CF0009091BB078091BA072FEF3FEF981748F4C8
:104D0000E92FF0E0EE52F64F208130E09F5F909364
:104D1000BB07C90108958091BA079091BB07891B11
:104D2000990B0895CF92DF92EF92FF920F931F930A
:104D3000CF93DF937C01CB018A012091400A22238B
:104D400089F0EB016B01C40ED51ECC15DD0569F0B1
:104D50006991D701ED91FC910190F081E02DC7019F
:104D60001995F3CF642F0E943F26C801DF91CF91A0
:104D70001F910F91FF90EF90DF90CF900895CF9308
:104D8000DF931F92CDB7DEB769832091400A2223BB
:104D9000F9F020913E0A203258F021E030E0FC0189
:104DA0003383228390E080E00F90DF91CF910895CC
:104DB00080913F0AE82FF0E0E25EF54F9981908301
:104DC0008F5F80933F0A80933E0A81E090E0ECCFB2
:104DD00061E0CE0101960E943F26F7CFDC01599693
:104DE000ED91FC913097B9F083899489A589B689B2
:104DF0004285538564857585841B950BA60BB70B7F
:104E0000811520E89207A105B10538F08FEF9FE7E3
:104E1000A0E0B0E0089590E080E00895DC015996AC
:104E20008D919C91009739F0DC01ED91FC9104800B
:104E3000F581E02D199490E080E00895CF93DF9301
:104E40001F92CDB7DEB76983DC01ED91FC91028042
:104E5000F381E02D41E050E0BE016F5F7F4F199577
:104E60000F90DF91CF910895CF92DF92EF92FF9252
:104E70000F931F93CF93DF93EC016A017B0120E036
:104E800030E0A901CB01B6010E940ACA0FEF1FEF63
:104E900087FD02C001E010E081E08BA381E090E09B
:104EA0009B838A8320E030E040E85FE3C701B601DE
:104EB0000E94D0CD1816CCF120E030E040E05FEB4E
:104EC000C701B6010E940ACA87FD36C020E030E063
:104ED000A901C701B6010E94D0CD181694F520E0B3
:104EE00030E048EC52E4C701B6010E9470CA0E944B
:104EF00034CD272F6C877D87862F922F853691059D
:104F000014F084E690E0809F9001819F300D909F87
:104F1000300D11243D832C83DF91CF911F910F9190
:104F2000FF90EF90DF90CF900895C12CD12C90E8A6
:104F3000E92E9FE3F92ED3CFC12CD12CE12C8FEB9E
:104F4000F82EC701B601905820E030E048EC52E45A
:104F5000CCCFCF92DF92EF92FF920F931F93CF931C
:104F6000DF93EC016A017B0120E030E0A901CB0175
:104F7000B6010E940ACA0FEF1FEF87FD02C001E0D1
:104F800010E081E08BA382E090E09B838A8320E0A5
:104F900030E040E251E4C701B6010E94D0CD1816BE
:104FA000DCF020E030E040EA50ECC701B6010E949E
:104FB0000ACA87FD50C020E030E0A901C701B60150
:104FC0000E94D0CD181674F0C701B601905820E0A9
:104FD00030E04AE754E40CC0C12CD12C90E2E92E19
:104FE00091E4F92E20E030E04AE754E4C701B6012D
:104FF0000E9470CA20E030E040E752E40E94C2CC38
:1050000023EC35EF48EC5FE30E94C2CC20E030E0B7
:1050100040E251E40E9470CA0E9434CD272F6A8773
:105020007B87862F922F813D27E0920714F080ED39
:1050300097E0809F9001819F300D909F300D11244B
:105040003D832C83DF91CF911F910F91FF90EF90C3
:10505000DF90CF900895C12CD12C80EAE82E80EC0F
:10506000F82EB2CFEB988EE396E2909314028093E1
:105070001302089586E30E94272630E020E0E8E44A
:10508000F2E041915191841795071CF42F5F3F4F37
:10509000F8CF220F331FF901EE5CFD4F8081918123
:1050A0000895F0E0E0E019948091E80E9091E90E07
:1050B000029751F081E02091200E3091210E223094
:1050C000310519F080E0089581E008954F925F92D4
:1050D0006F927F928F929F92AF92BF92CF92DF9208
:1050E000EF92FF926B017C0149015A0120E030E010
:1050F000A9010E94D0CD181674F520E030E040E8F8
:105100005FE3C701B6010E94D0CD87FFAFC020E0AA
:1051100030E040E85FEBC701B6010E940ACA1816EA
:105120000CF0A4C0A7019601C701B6010E9470CA85
:1051300020E030E040E050EC0E9470CA20E030E017
:1051400040E85FE30E94DFCB6B017C0120E030E0B0
:1051500040E85FE338C020E030E0A901C701B601B4
:105160000E940ACA87FF89C020E030E040E85FE380
:10517000C701B6010E94D0CD87FF88C020E030E093
:1051800040E85FEBC701B6010E940ACA18160CF08E
:105190007DC0A7019601C701B6010E9470CA20E038
:1051A00030E040E050EC0E9470CA20E030E040E87F
:1051B0005FE30E94DFCB9B01AC01C12CD12C60E8E6
:1051C000E62E6FE3F62EC501B4010E9470CA2B01D2
:1051D0003C01A7019601C501B4010E9470CA6B0190
:1051E0007C0120E030E0A901C301B2010E940ACA9B
:1051F00020E030E040EA50E487FD04C020E030E0E9
:1052000040E251E4C301B2010E9470CA4B015C014B
:1052100020E030E0A901C701B6010E940ACA20E0DF
:1052200030E040EA50E487FD04C020E030E040E296
:1052300051E4C701B6010E9470CA6B017C0120E0F5
:1052400030E0A901C501B4010E94D0CD18164CF57B
:1052500020E030E040E85FE3C501B4010E940ACAE3
:1052600087FF29C0812C912C540125C0C12CD12C41
:1052700020E8E22E2FEBF22E69CFC12CD12C90E842
:10528000E92E9FE3F92EA70196019DCFC12CD12CC9
:1052900080E8E82E8FE3F82E20E030E040E85FEB76
:1052A00092CF20E030E040E85FEBC501B4010E94FE
:1052B000D0CD1816BCF220E030E0A901C701B6013C
:1052C0000E94D0CD181674F420E030E040E85FE38F
:1052D000C701B6010E940ACA87FF0EC0C12CD12C9B
:1052E00076010AC020E030E040E85FEBC701B6017C
:1052F0000E94D0CD181694F320E030E0A901C5013A
:10530000B4010E94D0CD1816B4F520E030E040E89A
:105310005FE3C501B4010E940ACA87FF36C010923C
:10532000F30E1092D50E1092D40E20E030E0A901B9
:10533000C701B6010E94D0CD181674F520E030E008
:1053400040E85FE3C701B6010E940ACA87FF2EC08A
:1053500010922B0E10920D0E10920C0EFF90EF90EB
:10536000DF90CF90BF90AF909F908F907F906F9085
:105370005F904F90089520E030E040E85FEBC5017A
:10538000B4010E94D0CD181654F2B501A40180EDED
:105390009EE00E94A927C9CF20E030E040E85FEB03
:1053A000C701B6010E94D0CD181694F2B701A6012C
:1053B00088E09EE0FF90EF90DF90CF90BF90AF909D
:1053C0009F908F907F906F905F904F900C94A92743
:1053D00080916607811103C081E08093660708957C
:1053E00008950895EF92FF920F931F93CF93DF9349
:1053F000C1E0D0E0CE0101978130910561F00297C4
:10540000A1F087E30E942726009751F4C330D1050D
:1054100089F02196EFCF88E30E9427260097C9F3F1
:10542000E80EF91E0F5F1F4FF1CF89E30E94272678
:105430000097B1F7C701B8010E9468CBCB01DF919B
:10544000CF911F910F91FF90EF9008950E94F22944
:1054500021E00B970CF420E02093B607822F0895EB
:10546000CF93C091AF07CC2391F0C1E02DEC3CEC81
:105470004CE45FE36091150C7091160C8091170C51
:105480009091180C0E94D0CD18160CF0C0E08C2F13
:10549000CF910895089590E080E008950F931F93B1
:1054A000CF93DF93EC0188819981009759F02A818D
:1054B0003B812617370730F081E0DF91CF911F91B4
:1054C0000F9108958B016F5F7F4F0E94BDCF0097B2
:1054D00059F0998388831B830A832C813D81232B78
:1054E00059F7FC011082E8CF80E0E7CF880F991FC1
:1054F000FC01E754F34F60817181072E000C880B8B
:10550000990B0E9411CA22E538EB4EE151E40E944A
:10551000C2CC0E94DDCD64567109072E000C880BA9
:10552000990B0E9411CA20E030E046EA52E40E9442
:10553000DFCB20E030E046E253E40E94C2CC20E022
:1055400030E040E853E40E9470CA0E9434CDCB01A1
:105550000895EF92FF920F931F93CF93DF936115FE
:10556000710541F480E0DF91CF911F910F91FF9081
:10557000EF90089541155105B1F07B01EC010C81CC
:105580001D81040F151FB8010E944E2A882351F374
:10559000288139818C819D81B701820F931F0E94E0
:1055A000CBD01D830C8381E0DECFCF93DF93EC0162
:1055B00088819981009711F00E9434CF1982188256
:1055C0001D821C821B821A82DF91CF910895EF9277
:1055D000FF920F931F93CF93DF93EC017B018A011E
:1055E000BA010E944E2A81110BC0CE010E94D52A19
:1055F000CE01DF91CF911F910F91FF90EF90089511
:105600001D830C83B701888199810E94CBD0F0CF94
:10561000FC0180819181009711F00C9434CF0895A2
:10562000EF92FF920F931F93CF93DF93EC018B01C7
:10563000198218821B821A821D821C82CB010E9451
:1056400002C77C01BC01CE010E944E2A811109C013
:10565000CE01DF91CF911F910F91FF90EF900C94AD
:10566000D52AFD82EC82B80188819981DF91CF91A2
:105670001F910F91FF90EF900C94FBC6FB01DC0192
:1056800011961C921E9213961C921E9212971596BA
:105690001C921E9214978617970749F060817181BA
:1056A0006115710521F0448155810C94E72A089514
:1056B000FC011182108213821282158214826115FC
:1056C000710551F0FB0101900020E9F73197AF011E
:1056D000461B570B0C94E72A0895FB01019000200C
:1056E000E9F73197AF01461B570BDC01ED91FC91B7
:1056F0000280F381E02D19948F929F92AF92BF9216
:10570000EF92FF920F931F93CF93DF93CDB7DEB746
:10571000A1970FB6F894DEBF0FBECDBF7C01FA0192
:10572000CB0119A2223008F42AE08E010F5D1F4F31
:10573000822E912CB12CA12CBF01A50194010E94B5
:105740007CCBF901CA016A300CF5605DD8016E931B
:105750008D01232B242B252B79F790E080E01097E7
:1057600021F0BD01C7010E946D2BA1960FB6F894E0
:10577000DEBF0FBECDBFDF91CF911F910F91FF9084
:10578000EF90BF90AF909F908F900895695CDECFAF
:1057900068E076E00C946D2B0C947C2BCF92DF921A
:1057A000EF92FF920F931F93CF93DF932A3031052F
:1057B00021F52AE077FF21C06A017B01EC01E88135
:1057C000F9810190F081E02D6DE219958C0144275B
:1057D0005527BA014C195D096E097F092AE0CE01EF
:1057E0000E947C2B800F911FDF91CF911F910F9111
:1057F000FF90EF90DF90CF900895DF91CF911F91B0
:105800000F91FF90EF90DF90CF900C947C2B9A013A
:10581000AB0170E060E00C94CC2B9A01AB01770FE8
:10582000660B770B0C94CE2B9A01462F50E070E05C
:1058300060E00C94CC2B0F931F93CF93DF93EC017C
:105840000E94142C8C01CE010E94C82B800F911F46
:10585000DF91CF911F910F910895DB0114964D9127
:105860005C9115976D917C91DC01ED91FC9102802A
:10587000F381E02D1994EF92FF920F931F93CF9332
:10588000DF938C017B01D0E0C0E0F701EC0FFD1F3E
:105890006491662361F0D801ED91FC910190F08153
:1058A000E02DC8011995892B11F02196EECFCE017C
:1058B000DF91CF911F910F91FF90EF9008950F937B
:1058C0001F93CF93DF93EC010E943B2C8C01CE0100
:1058D0000E94C82B800F911FDF91CF911F910F91D4
:1058E0000895EF92FF920F931F93CF93DF93EC01F4
:1058F00088A581111DC06DE172E381E49AE00E94E8
:105900003B2C6C897D8940E150E081E49AE00E9463
:105910000D2C63E172E381E49AE00E945F2C81E048
:1059200090E0DF91CF911F910F91FF90EF9008953C
:1059300065E572E381E49AE00E943B2C6E817F81F1
:105940004AE050E081E49AE00E940D2C65E472E3A5
:1059500081E49AE00E943B2C688D798D4AE050E00A
:1059600081E49AE00E940D2C6DE372E381E49AE0F9
:105970000E943B2C688579854AE050E081E49AE0FA
:105980000E940D2C6DE272E381E49AE00E943B2CB0
:105990006E857F854AE050E081E49AE00E940D2CFC
:1059A0006BE272E381E49AE00E943B2C81E49AE08E
:1059B0000E94C82B69E672E381E49AE00E943B2CC6
:1059C0007E0189E6E80EF11C10E000E0F70181910C
:1059D0007F01882369F04AE050E0B80181E49AE051
:1059E0000E94072C67E672E381E49AE00E943B2C58
:1059F0000F5F1F4F0034110549F765E672E381E43C
:105A00009AE00E943B2C65E772E381E49AE00E94F1
:105A10003B2CA99610E000E08991882369F04AE0C8
:105A200050E0B80181E49AE00E94072C63E772E33A
:105A300081E49AE00E943B2C0F5F1F4F0034110558
:105A400059F761E772E381E49AE00E943B2C81E41C
:105A50009AE00E94C82B90E080E063CF1F920F92E3
:105A60000FB60F9211240BB60F922F933F934F93C3
:105A70005F936F937F938F939F93AF93BF93EF93B6
:105A8000FF938CE19CE00E940825FF91EF91BF916C
:105A9000AF919F918F917F916F915F914F913F91C6
:105AA0002F910F900BBE0F900FBE0F901F90189567
:105AB0001F920F920FB60F9211240BB60F922F93D5
:105AC0003F934F935F936F937F938F939F93AF9386
:105AD000BF93EF93FF938CE19CE00E949424FF918D
